:100000000216198F993099FDC29922021912900295
:100010000EEEF0A3EFF0A3ECF0A3EDF043BA809066
:10002000020EE0FEA3E0FBAA06E4F9F87FF07E49A9
:100030007D02FC12176DAE02AF03C006C00790022E
:100040000EE0FEA3E0FBAA06E4F9F87FF07E497D0E
:1000500002FC12176DD0E02FFFD0E03E90FFF0F0D1
:10006000A3EFF053BA7F900210E0FFA3E0900002EC
:10007000CFF0A3EFF090020EE0FFA3E09001B6CF27
:09008000F0A3EFF02253F7FE3269
:10008B0002186490025FE07002A3E0701890025FA8
:10009B00F0A3740AF07F011218ECD3EF94C6EE9420
:0600AB00024002D2842293
:0300B30002156CC7
:1000BB00020085020406E86480F8E933E833601136
:1000CB000460F0ED33EC337009E8FCE9FDEAFEEB7C
:1000DB00FF220460DED3EB9FEA9EE99DE8C2E78C2A
:1000EB00F0C2F795F0400CE8CCF8E9CDF9EACEFA7E
:1000FB00EBCFFB1203D185D0F05804700320D5B39E
:10010B00E80470075002B2D502041092D5EC0460DB
:10011B00F7E4CCC0E0C398F8603B94186008400D3E
:10012B00D0E0FB0203E8E4FBFAC9FC8028E830E4EA
:10013B0006E4C9FBE4CAFCE830E305E4C9CACBFC1E
:10014B00E854076010F8C3E913F9EA13FAEB13FB51
:10015B00EC13FCD8F130F52FC3E49CFCEF9BFFEEC6
:10016B009AFEED99FDD0E0FBEF4E4D4C701222DB69
:10017B000302040DEC2CFCEF33FFEE33FEED33FDED
:10018B00ED30E7EB0203E8EF2BFFEE3AFEED39FD26
:10019B00D0E0FB50130BBB0003020410ED13FDEE7C
:1001AB0013FEEF13FFEC13FC0203E8EC4D6011E8B8
:1001BB00497017ED33EC3304600DE4FCFFFEFD22B8
:1001CB00E933E8330470F80204061203D1580460D3
:1001DB0009E4CC248150062850090204102840035E
:1001EB0002040DC0E0EB4A7044B98006D0E0FB027C
:1001FB0003FCEF4E701CBD8008EBFFEAFEE9FD80AF
:10020B00EBE98DF0A4FEE5F002029FE9CDF9EAFEE1
:10021B00EBFFEF89F0A4FCE5F0CE89F0A42EFFE410
:10022B0035F0CD89F0A42DFEE435F08067EF4E70EC
:10023B0005BD80D780C3EF8BF0A4ACF0EE8BF0A4A0
:10024B002CFCE435F0F8EF8AF0A42CE5F038FCE454
:10025B0033CB8DF0A42CFCE5F03BF8EE8AF0A42C0C
:10026B00FCE5F038F8E433CF89F0A42CFCE5F0384A
:10027B00CF3400CE89F0A42FFFE5F03EFEE433C966
:10028B008DF0A42EFEE5F039CD8AF0A42FFFE5F01A
:10029B003EFEE43DFD33D0E0FB50070BBB000F02ED
:1002AB000410EC2CFCEF33FFEE33FEED33FD0203B9
:1002BB00E8020410EC5D046005E8590470030204C5
:1002CB00061203D1580460F6EC4860F2EC7004FDA2
:1002DB00FEFF22C860DB2481C85009C3986002501E
:1002EB000602040D9850CAF582E9294B4A7005ABFA
:1002FB00820203FC75F0007C1A7880C3EF9BEE9AA8
:10030B00ED99400DC3EF9BFFEE9AFEED99FDE84290
:10031B00F0DC23ACF0D0E0FFD0E0FED0E0FDAB8210
:10032B0020E7101BEB60BAEC2CFCEF33FFEE33FE37
:10033B00ED33FD0203E8E803F830E705C0F075F094
:10034B0000EF2FFFEE33FEED33FD40B830E7C280F8
:10035B00AA75F020800E75F010800575F0087D00F1
:10036B007E007F003392D530D5031207AAEC3340C1
:10037B0010EF33FFEE33FEED33FDEC33FCD5F0ED38
:10038B0022E5F0247EA2D513CC92E7CDCEFF22ED51
:10039B00D2E7CD33EC3392D524814006E4FFFEFD4A
:1003AB00FC22FCE4CFCECDCC24E0501174FF80EDC9
:1003BB00C3CC13CCCD13CDCE13CECF13CF0470F053
:1003CB0030D5DE0207AAE9D2E7C933E833F892D574
:1003DB00EDD2E7CD33EC33FC5002B2D522EC30E753
:1003EB00100FBF000C0EBE00080DBD00040BEB6020
:1003FB0014A2D5EB13FCED92E7FD2274FFFCFDFE7E
:10040B00FF22E480F8A2D574FF13FC7D80E480EF1B
:10041B00F920E73624F950037907E4F42402FBE5CD
:10042B0082158270021583DBF6E024FB501BE9601A
:10043B0014E4F0E582158270021583E004F0B40A2F
:10044B0008E4F0D9EE7401F00A22C2D522ED33ECA8
:10045B003392D5FA602AB4FF33EDC2E77BFF600617
:10046B007A04797DE4227A04798620D5047A04799A
:10047B0081224E614E002B494E46002D494E4600BF
:10048B00E47A08F0A3DAFC7B00740722C083C082F5
:10049B00ECC0E0EDC0E0EEC0E0EFC0E0EA75F010BC
:1004AB00A4CAABF075F04DA42BFBE435F0FCEA24A9
:1004BB0010FAEB34C5FBEC34D9FCEDC2E7FF75F059
:1004CB0056A4F42411C5F0F434C58FF0A42AE5F03A
:1004DB003BE43CF020E7141205DAD0E0FFD0E0FE5D
:1004EB00D0E0FDD0E0FC1202BF8014F4041205DA58
:1004FB00D0E0FFD0E0FED0E0FDD0E0FC1201B6D0A2
:10050B0082D083E0FAEDD2E7CD33EC332482FBE4E7
:10051B00C3CF33CFCE33CECD33CD33DBF37B0775A8
:10052B00F00A846004F0A31B0AE5F0F0A38FF074CB
:10053B000AA4FFACF08EF0740AA42CFEACF05001B0
:10054B000C8DF0740AA42CFDE435F0F0A3DBDE7403
:10055B000722C0E0EFFBEEFAEDF9ECF81201B6D092
:10056B00E0F5F0EFFBEEFAEDF9ECF81207B8A3A308
:10057B00A3A3E8C0E0E9C0E0EAC0E0EBC0E0C0F054
:10058B001201B61207D4A3A3A3A31200C5D0F0D0B7
:10059B00E0FBD0E0FAD0E0F9D0E0F8D5F0D4223F80
:1005AB008000004120000042C80000447A00004651
:1005BB001C400047C35000497424004B1896804CD4
:1005CB00BEBC205A0E1BCA6753C21C749DC5AEFB22
:1005DB0060065407601C2323120608EB543860098D
:1005EB001205F41206031201B6ECF8EDF9EEFAEF70
:1005FB00CB22EB12060380F1543803241C9005AA7E
:10060B00FE93FC0EEE93FD0EEE930ECE93FF22BBEC
:10061B00010689828A83E0225002E722BBFE02E3B5
:10062B002289828A83E49322BB010CE58229F5821D
:10063B00E5833AF583E0225006E92582F8E622BBF2
:10064B00FE06E92582F8E222E58229F582E5833A66
:10065B00F583E49322BB010689828A83F022500240
:10066B00F722BBFE01F322F8BB010DE58229F582CF
:10067B00E5833AF583E8F0225006E92582C8F62295
:10068B00BBFE05E92582C8F222EF8DF0A4A8F0CFBE
:10069B008CF0A428CE8DF0A42EFE22BC000BBE0045
:1006AB0029EF8DF084FFADF022E4CCF875F008EF64
:1006BB002FFFEE33FEEC33FCEE9DEC984005FCEE89
:1006CB009DFE0FD5F0E9E4CEFD22EDF8F5F0EE84BA
:1006DB0020D21CFEADF075F008EF2FFFED33FD407F
:1006EB0007985006D5F0F222C398FD0FD5F0EA22F9
:1006FB00C2D5EC30E709B2D5E4C39DFDE49CFCEE1A
:10070B0030E715B2D5E4C39FFFE49EFE1206A6C3E5
:10071B00E49DFDE49CFC80031206A630D507C3E4E0
:10072B009FFFE49EFE22A3F8E0C5F025F0F0E582E2
:10073B00158270021583E0C838F0E822BB010A89E4
:10074B00828A83E0F5F0A3E022500687F009E719CF
:10075B0022BBFE07E3F5F009E3192289828A83E4C1
:10076B0093F5F074019322BB010789828A830208F7
:10077B0036500B09C5F027F7C5F01937F722BBFE2A
:10078B000D09F8E325F0F3C5F019E338F322F889E6
:10079B00828A8374019325F0C5F0F8E4933822C361
:1007AB00E49FFFE49EFEE49DFDE49CFC22E493FCAD
:1007BB00740193FD740293FE740393FF22E0F8A37C
:1007CB00E0F9A3E0FAA3E0FB22E493F8740193F9B8
:1007DB00740293FA740393FB22ECF0A3EDF0A3EEF7
:1007EB00F0A3EFF022F8E0FBA3A3E0F925F0F0E58E
:1007FB0082158270021583E0FA38F022EBF0A3EA3F
:10080B00F0A3E9F022D083D082F8E4937012740144
:10081B0093700DA3A393F8740193F5828883E4730B
:10082B007402936860EFA3A3A380DFC5F0F8A3E085
:10083B0028F0C5F0F8E582158270021583E038F0D8
:10084B002275F008758200EF2FFFEE33FECD33CD0E
:10085B00CC33CCC58233C5829BED9AEC99E582985B
:10086B00400CF582EE9BFEED9AFDEC99FC0FD5F05A
:10087B00D6E4CEFBE4CDFAE4CCF9A88222B800C1D1
:10088B00B90059BA002DEC8BF084CFCECDFCE5F03E
:10089B00CBF97818EF2FFFEE33FEED33FDEC33FC85
:1008AB00EB33FB10D703994004EB99FB0FD8E5E42E
:1008BB00F9FA227818EF2FFFEE33FEED33FDEC3310
:1008CB00FCC933C910D7059BE99A4007EC9BFCE99F
:1008DB009AF90FD8E0E4C9FAE4CCFB2275F010EFDB
:1008EB002FFFEE33FEED33FDCC33CCC833C810D71E
:1008FB00079BEC9AE899400AED9BFDEC9AFCE89972
:10090B00F80FD5F0DAE4CDFBE4CCFAE4C8F922E534
:10091B00102411F582E43402F583E00510229002D5
:10092B000E300703900211E475F0011207F0020676
:10093B001A2000E97F2ED2008018EF540F2490D498
:10094B003440D4FF30040BEF24BFB41A00500324FF
:10095B0061FFE511600215110514E5147002051312
:10096B0030070E90020EE475F0011207F0EF02064D
:10097B00600218C57403D2078003E4C207F5109018
:10098B00020E120807E4F511F513F514E5116007D3
:10099B007F2012095D80F57512FFC201C200C202F1
:1009AB00C203C205C206C208120929FF700D300727
:1009BB00057F0012096EAF14AE1322B4255FC2D5AA
:1009CB00C204120929FF24D0B40A00501A75F00A88
:1009DB00781130D50508B6FF0106C6A426F620D53A
:1009EB00047002D20380D924CFB41A00EF5004C292
:1009FB00E5D204020C60D20180C6D20080C0D202C4
:100A0B0080BCD2D580BAD20580B47F2012095D207C
:100A1B0002077401B5110040F112091AFF12095DAA
:100A2B00020997D208D206809512091AFB12091AED
:100A3B00FA12091AF94A4B7006795E7A0D7BFF2080
:100A4B00022EE511602A7E008E827583001206331A
:100A5B0060060EEE651270F0C2D5EBC0E0EAC0E0A6
:100A6B00E9C0E0EE120CC1D0E0F9D0E0FAD0E0FB27
:100A7B0012061AFF60AAEBC0E0EAC0E0E9C0E01280
:100A8B00095DD0E02401F9D0E03400FAD0E0FBE5B9
:100A9B00120460DCD512D98087D20280A2120CA37B
:100AAB0060F7E51270010412041BA912600DE51228
:100ABB00600914F512120D4BEF60F3EA30E702F404
:100ACB0004C3995079EAF425120430E701E404F5E4
:100ADB0012800D120CA360C1EA0512251212041B21
:100AEB00EA90023DF030E701E4251204D512042010
:100AFB00050114120CC1E4C0E0120D4B90023DE055
:100B0B00601320E70714F0120945802204F0D0E0AF
:100B1B0014C0E07F00120945E512600712093C156D
:100B2B0012800B30050312093CD0E0020997D0E08C
:100B3B000480C4120CA3609EE5120412041B9002E5
:100B4B003DEAF0E5122005026001042404120CC1F9
:100B5B0074FF04C0E0120D4B120945E5122005028B
:100B6B00600312093CD0E0B512E87F4512094F90A3
:100B7B00023DE07F2B30E7047F2DF404C0E0120927
:100B8B005DD0E075F00A84C0F0120946D0E012097E
:100B9B0046020997791080027908C206C2088008BC
:100BAB00D2D5790A8004790AC2D5E512047002F510
:100BBB0012E4FAFDFEFF12091AFC7B082001131246
:100BCB00091AFD7B1030000A12091AFE12091AFFCE
:100BDB007B20EC3382D592D55013C3E43000069FB3
:100BEB00FFE49EFEE42001039DFDE49CFCE4CBF8B6
:100BFB00C201EC700CCFCECDCCE824F8F870F380AA
:100C0B0017C3EF33FFEE33FEED33FDEC33FCEB3369
:100C1B00FB994002FB0FD8E9EB300105F8D0E0C49B
:100C2B0048B201C0E00AEC4D4E4F78207B0070C2F9
:100C3B00EAB5120040BCC0E0120CC3D0F0D0E020EB
:100C4B000104C4C0E0C4B201C0F0120946D0F0D513
:100C5B00F0EB0209971208100A34530B9F580A0540
:100C6B004C0A01420BA34F0BAB440BAB490A1A4383
:100C7B000BB1550ADE460B3E450AA8470D7E500ABE
:100C8B00092D0A0D2E0A302B0A11230A2E200D676F
:100C9B002A09C94800000A28E512B4FF0375120699
:100CAB0012091AFC12091AFD12091AFE12091AFF6F
:100CBB00900236020458790AA2D520031430050994
:100CCB00B910020404B9080104A2D5200602500190
:100CDB00042002689202B511005034C0E07F20302E
:100CEB0003197F30A20272067205500F120D1AC241
:100CFB0002C206C205C2087F30800F300503E9C06F
:100D0B00E012095D300503D0E0F9D0E0B511CC302D
:100D1B0005177F30B9100C12095D7F583004077F1F
:100D2B00788003B9080312095D3002057F2D020993
:100D3B005D7F202008F87F2B2006F322920280CFC4
:100D4B007F00B40700500B2436F582E43402F583A0
:100D5B00E0FF22286E756C6C2900D20112091A3043
:100D6B0001F8C201781130D50108F60209C92D50DE
:100D7B0043495812091A2403B405004001E4900DAD
:100D8B00799312094E743A12094ED203751104026B
:100D9B000B9F900245EEF0A3EFF0A3ECF0A3EDF068
:100DAB00A3EAF0A3EBF0E4A3F0A3F0900245E0FC80
:100DBB00A3E0FDE4120361A804A905AA06AB07E4AE
:100DCB00FFFE7DB47C431202BF9002551207E490E4
:100DDB000249E07004A3E064506003020EED900042
:100DEB0022E0FF7E00900247E0FCA3E0FD12069498
:100DFB00EF2401FFE43EFE900247F0A3EFF0D39403
:100E0B00B8EE940B400A900247740BF0A374B8F041
:100E1B00E490024BF0A3F0900245E0FEA3E0FF90BC
:100E2B00024BE0FCA3E0FDC39FEC9E4003021000CD
:100E3B00E4120361900255E0F8A3E0F9A3E0FAA3F2
:100E4B00E0FB1201B69002511207E47F557EDE7D66
:100E5B008E7C3C900251E0F8A3E0F9A3E0FAA3E00A
:100E6B00FB1201B690024D1207E490024DE0FCA379
:100E7B00E0FDA3E0FEA3E0FF12124BC004C005C0CF
:100E8B0006C007900247E0C313FEA3E01324FAFD4C
:100E9B00EE34FFFCE4120361D003D002D001D0008A
:100EAB001201B67B007A9079BB78441200C512030D
:100EBB009AAD07AC0690024CE025E0FF90024BE0A8
:100ECB0033FE74242FF58274003EF583ECF0A3ED12
:100EDB00F090024CE004F0700690024BE004F0023C
:100EEB000E22900249E07004A3E0646060030210DC
:100EFB0000900023E0FF7E00900247E0FCA3E0FDA2
:100F0B00120694EF2401FFE43EFE900247F0A3EF9C
:100F1B00F0D394C4EE9409400A9002477409F0A3ED
:100F2B0074C4F0E490024BF0A3F0900245E0FEA3F2
:100F3B00E0FF90024BE0FCA3E0FDC39FEC9E40035F
:100F4B00021000E4120361900255E0F8A3E0F9A34C
:100F5B00E0FAA3E0FB1201B69002511207E47F55B1
:100F6B007EDE7D8E7C3C900251E0F8A3E0F9A3E09D
:100F7B00FAA3E0FB1201B690024D1207E490024D6A
:100F8B00E0FCA3E0FDA3E0FEA3E0FF12124BC004C4
:100F9B00C005C006C007900247E0C313FEA3E013D1
:100FAB0024FAFDEE34FFFCE4120361D003D002D02F
:100FBB0001D0001201B67B007A50799C7844120064
:100FCB00C512039AAD07AC0690024CE025E0FF90EA
:100FDB00024BE033FE74242FF58274003EF583EC54
:100FEB00F0A3EDF090024CE004F0700690024BE0A1
:100FFB0004F0020F352260200262000000000000A6
:10100B0000000000000000000000000000000000D5
:10101B0000000000000000000000410261004102DE
:10102B00820042025F00C842000400004200000040
:10103B000042000200004201B6000041002297412D
:10104B0000237E6190002404B004D604FB05210527
:10105B0046056C059105B605DA05FF06230646061F
:10106B0069068C06AF06D006F20712073307520744
:10107B0071078F07AC07C907E50800081A08340881
:10108B004C0864087A089008A508B808CB08DD0856
:10109B00ED08FD090B091909250930093A0943091E
:1010AB004B09510956095B095E095F0960095F0924
:1010BB005E095B09570951094B0943093B09310982
:1010CB0026091A090C08FE08EF08DE08CC08BA0836
:1010DB00A60892087C0865084E0836081C0802070B
:1010EB00E707CB07AF0791077307540735071506BB
:1010FB00F406D306B1068F066C06490625060105D4
:10110B00DD05B80594056E0549052404FE04D904D4
:10111B00B3048D04680442041D03F703D203AD032B
:10112B008903640340031D02F902D602B402920242
:10113B007102500230021001F101D301B601990185
:10114B007D01620148012E011600FE00E700D2006E
:10115B00BD00A9009600850074006400560048008D
:10116B003C00310027001E0016000F000A0006008D
:10117B0003000100000000000200050009000E0042
:10118B0014001C0025002E0039004500530061009F
:10119B00700081009200A500B800CD00E200F901BB
:1011AB001001290142015C0177019301AF01CC01D0
:1011BB00EA0209022902490269028A02AC02CE0242
:1011CB00F103140338035C038003A503CA03EF0484
:1011DB00140439045F04854201B40000420020006E
:1011EB0000003A70FA83BCAAE9E43E81E0F8BF9DA7
:1011FB00E9E63F80000039283C1ABB9969663DA39C
:10120B0035E3BF255DE73FC90FDB418DDBCCC4491F
:10121B0036EE45C9913FC5B0F83D3F800000C3177E
:10122B00F534452FFA73C60AFDDD1212F604A2E15E
:10123B0092091420E0159011ED740412055D8030B5
:10124B001212F630E102B20920E0EBA883A98290DA
:10125B0002591207E48982888390120174041205E3
:10126B005D8582F09002591207C885F0821201B693
:10127B00ED4C6007300904EC6480FC221212F6C0BE
:10128B00E0A883A9829002591207E489828883908F
:10129B001225740312055D8582F09002591207C85E
:1012AB0085F0821201B6900259E0CCF0A3E0CDF0AC
:1012BB00A3E0CEF0A3E0CFF0901215740312055DFE
:1012CB00D0828582F09002591207C885F082E582A0
:1012DB0030E0071202BFB2098096EFCBFFEECAFED9
:1012EB00EDC9FDECC8FC1202BF8085ED33EC547FD9
:1012FB00CC33920924605007D0E0D0E00204067B87
:10130B00837AF97922783E1201B6EDF933ECF83392
:10131B0024815011EFFBEEFA12039A12035CECB22C
:10132B00E7FC1200C5ED33EC33602F2403F8C31335
:10133B00FCED92E7FDE82481E4501FECF8EDF9EEAB
:10134B00FAEFFB12039AEF04C2E0FCF5821203667C
:10135B00ECB2E7FC1200C5E58203FAED33EC336027
:10136B00071413FCED92E7FDEA229001B8EEF0A30F
:10137B00EFF0E4A3F01219CC9001B4EEF0A3EFF070
:10138B009001BAE004F0E0C3946440E99001B4E04A
:10139B00FCA3E0FD7E0B7FB81206A6AC06AD07E4FE
:1013AB001203617BF47AFD79B4783F1201B6120314
:1013BB009A900022EFF09001B4E0FCA3E0FD7E09CF
:1013CB007FC41206A6AC06AD07E41203617BF47A68
:1013DB00FD79B4783F1201B612039A900023EFF017
:1013EB0043BA80E4F5F190FFF2F09001B8E0FEA370
:1013FB00E0FBAA06E4F9F87FF07E497D02FC1217A8
:10140B006DAE02AF03C006C0079001B8E0FEA3E0CB
:10141B00FBAA06E4F9F87FF07E497D02FC12176DFA
:10142B00D0E02FFFD0E03E90FFF0F0A3EFF090FF65
:10143B0010E4F0A3F0A3F0A37464F0A3E4F043F57D
:10144B000253F1FDC2A190FF20F0A3F0A3F0A3740F
:10145B0069F0A3E4F043F50443F104D2A290FF40FA
:10146B00F0A3F0A3F0A37464F0A3E4F043F51053DE
:10147B00F1EFC29690FF50F0A3F0A3F0A37469F0C4
:10148B00A3E4F043F52043F120D29743F54043F515
:10149B008053BA7FD2AF227B017A0179B81217162B
:1014AB00EF6409600302156B9001BAE0FF90020A2A
:1014BB00E4F0A3EFF09001BFE0FEA3E0FDEDFF90A1
:1014CB00020CEEF0A3EFF07C007D0A1206A6900250
:1014DB000CEEF0A3EFF0D3941CEE940040099002B5
:1014EB000CE4F0A3741CF0C390020DE09401900285
:1014FB000CE094005005E4F0A304F090021174FF8B
:10150B00F0A37419F0A374B6F090020AE0FFA3E005
:10151B00900214CFF0A3EFF07B017A0179D8120976
:10152B007F1217F290021174FFF0A37419F0A374D9
:10153B00C3F090020CE0FFA3E0900214CFF0A3EFF6
:10154B00F07B017A0179D812097F1217F290020A07
:10155B00E0FEA3E0FFA3E0FCA3E0FD12000ED284AB
:10156B0022C0E0C0F0C083C082C0D075D00890020A
:10157B005DE4F0A3F0E5F620E60302160E53F6BF8A
:10158B0043BA80900021E025E0FF900020E033FE7D
:10159B0074242FF58274003EF583E0FEA3E0FF90E8
:1015AB00025DEEF0A3EFF012000390025DE0FEA3EC
:1015BB00E0FF90FF12EEF0A3EFF090FF42EEF0A3EE
:1015CB00EFF090025E2405F090025DE03400F0E055
:1015DB00FEA3E0FF90FF22EEF0A3EFF090FF52EEA0
:1015EB00F0A3EFF053BA7F900020E475F0011207DF
:1015FB0031FED3E5F094C8EE94004007900020E450
:10160B00F0A3F0D0D0D082D083D0F0D0E032787F6E
:10161B00E4F6D8FD75812102166002189BE493A3B2
:10162B00F8E493A34003F68001F208DFF48029E489
:10163B0093A3F85407240CC8C333C4540F4420C8D5
:10164B00834004F456800146F6DFE4800B0102046C
:10165B000810204080901001E47E019360BCA3FF32
:10166B00543F30E509541FFEE493A360010ECF54A1
:10167B00C025E060A840B8E493A3FAE493A3F8E490
:10168B0093A3C8C582C8CAC583CAF0A3C8C582C8FC
:10169B00CAC583CADFE9DEE780BEE49001BBF0A3D5
:1016AB00F0FF1218EC90001EEEF0A3EFF0E4FDFC3F
:1016BB00ED25E0FFEC33FE74082FF58274003EF548
:1016CB0083E0FAA3E0FB74062FF58274003EF583EA
:1016DB00EAF0A3EBF074062FF58274003EF583E07D
:1016EB00FEA3E0FF9001BCE02FF09001BBE03EF0C9
:1016FB000DBD00010CED640C4C70B59001BBE0FE10
:10170B00A3E0FF7C007D0C1206FB2290020EEBF097
:10171B00A3EAF0A3E9F0E4A3F0900282E0FF9002C9
:10172B0061E06F603774622FF582E43402F583E079
:10173B00FF90020EE0FBA3E0FAA3E0F9A3E0F58231
:10174B00758300EF120672900211E004F090028292
:10175B00E004F07F147E0012193280BD900211E07C
:10176B00FF22C2D5E830E70FB2D5E4C39BFBE49A66
:10177B00FAE499F9E498F8EC30E717B2D51217A30D
:10178B00120888E4C39BFBE49AFAE499F9E498F80D
:10179B00800312088830D50DE4C39FFFE49EFEE45E
:1017AB009DFDE49CFC22900004E07002A3E07028F5
:1017BB00900004F0A37402F07B017A007900900092
:1017CB0002E0FCA3E0FD9001B6E0FFA3E090024332
:1017DB00CFF0A3EFF012182B900005E024FFF09050
:1017EB000004E034FFF0227B017A0179D890020EDD
:1017FB00EBF0A3EAF0A3E9F090020EE0FBA3E0FA12
:10180B00A3E0F912061A601790020EA3E475F0011B
:10181B00120731A9F0FA12061AFF12000380D9221F
:10182B00120747FFAEF06D7002EE6C602BD3EF9D8D
:10183B00EE9C400674FFF5F08004E475F00112078E
:10184B0072120747FDACF0900243E0FAA3E0FB7F76
:10185B00C87E00120D9DC28422C0E0C083C082C02E
:10186B00D0E5AC30E01953ACFE900261E02462F598
:10187B0082E43402F583E5ADF0900261E004F0E51B
:10188B00AC30E10353ACFDD0D0D082D083D0E0326A
:10189B0012195012199F1219871219E11219F4C259
:1018AB00B4D2847F327E001213757D147C007F329C
:1018BB007E0012000E1214A280FBEFB40A07740D07
:1018CB001218D0740A309811A899B8130CC298301A
:1018DB0098FDA899C298B811F63099FDC299F5995F
:1018EB0022EF4488F5BC00000000E5BC30E4FB535C
:1018FB00BCEFAFBD7E00EF7802C333CE33CED8F949
:10190B00FFADBEEF4DFF22C0E0C0F0C083C082C070
:10191B00D075D008B2B512008E1217B1D0D0D082CC
:10192B00D083D0F0D0E032D3EF9400EE940040148B
:10193B007D267C02ED1D70011CED4C70F7EF1F70C6
:10194B00E61E80E32275B2FFE4F5B17594FF759343
:10195B000175B4FFF5B37592FF759103F596F59587
:10196B0022EF1FAA0670011E4A60107C137D88EDC2
:10197B001DAA0470011C4A60E880F42275AC104368
:10198B00AC4043D10275D5F375D4FC43D10875AF88
:10199B0008D2AF22759850438E40538EFE53890F59
:1019AB00758BF3758DFCC2ABD28E22706C763A259B
:1019BB00627520687A0D0A00566F6C3A25640D0A21
:1019CB0000E4FFFE1216A57C007D361206947C0304
:1019DB007DE81206A622538E7F5389F0758A5875BF
:1019EB008C9EC28DD28CD2A922759D03E4F5BD7558
:0819FB00BC897F02FE02196C99
:00000001FF
