:100000000214A08F993099FDC299220217AFE49093
:100010000265F0A3F0FF12178990001EEEF0A3EF27
:10002000F0E4FDFCED25E0FFEC33FE74082FF582D3
:1000300074003EF583E0FAA3E0FB74062FF58274AA
:10004000003EF583EAF0A3EBF074062FF58274000E
:100050003EF583E0FEA3E0FF900266E02FF0900201
:1000600065E03EF00DBD00010CED640C4C70B590E8
:100070000265E0FEA3E0FF7C007D0C1206FB22532C
:03008000F7FE3256
:10008B0002170490023EE07002A3E0701890023E4B
:10009B00F0A3740AF07F01121789D3EF94C6EE9484
:0600AB00024002D2842293
:0300B30002152C07
:1000BB0002007F020406E86480F8E933E83360113C
:1000CB000460F0ED33EC337009E8FCE9FDEAFEEB7C
:1000DB00FF220460DED3EB9FEA9EE99DE8C2E78C2A
:1000EB00F0C2F795F0400CE8CCF8E9CDF9EACEFA7E
:1000FB00EBCFFB1203D185D0F05804700320D5B39E
:10010B00E80470075002B2D502041092D5EC0460DB
:10011B00F7E4CCC0E0C398F8603B94186008400D3E
:10012B00D0E0FB0203E8E4FBFAC9FC8028E830E4EA
:10013B0006E4C9FBE4CAFCE830E305E4C9CACBFC1E
:10014B00E854076010F8C3E913F9EA13FAEB13FB51
:10015B00EC13FCD8F130F52FC3E49CFCEF9BFFEEC6
:10016B009AFEED99FDD0E0FBEF4E4D4C701222DB69
:10017B000302040DEC2CFCEF33FFEE33FEED33FDED
:10018B00ED30E7EB0203E8EF2BFFEE3AFEED39FD26
:10019B00D0E0FB50130BBB0003020410ED13FDEE7C
:1001AB0013FEEF13FFEC13FC0203E8EC4D6011E8B8
:1001BB00497017ED33EC3304600DE4FCFFFEFD22B8
:1001CB00E933E8330470F80204061203D1580460D3
:1001DB0009E4CC248150062850090204102840035E
:1001EB0002040DC0E0EB4A7044B98006D0E0FB027C
:1001FB0003FCEF4E701CBD8008EBFFEAFEE9FD80AF
:10020B00EBE98DF0A4FEE5F002029FE9CDF9EAFEE1
:10021B00EBFFEF89F0A4FCE5F0CE89F0A42EFFE410
:10022B0035F0CD89F0A42DFEE435F08067EF4E70EC
:10023B0005BD80D780C3EF8BF0A4ACF0EE8BF0A4A0
:10024B002CFCE435F0F8EF8AF0A42CE5F038FCE454
:10025B0033CB8DF0A42CFCE5F03BF8EE8AF0A42C0C
:10026B00FCE5F038F8E433CF89F0A42CFCE5F0384A
:10027B00CF3400CE89F0A42FFFE5F03EFEE433C966
:10028B008DF0A42EFEE5F039CD8AF0A42FFFE5F01A
:10029B003EFEE43DFD33D0E0FB50070BBB000F02ED
:1002AB000410EC2CFCEF33FFEE33FEED33FD0203B9
:1002BB00E8020410EC5D046005E8590470030204C5
:1002CB00061203D1580460F6EC4860F2EC7004FDA2
:1002DB00FEFF22C860DB2481C85009C3986002501E
:1002EB000602040D9850CAF582E9294B4A7005ABFA
:1002FB00820203FC75F0007C1A7880C3EF9BEE9AA8
:10030B00ED99400DC3EF9BFFEE9AFEED99FDE84290
:10031B00F0DC23ACF0D0E0FFD0E0FED0E0FDAB8210
:10032B0020E7101BEB60BAEC2CFCEF33FFEE33FE37
:10033B00ED33FD0203E8E803F830E705C0F075F094
:10034B0000EF2FFFEE33FEED33FD40B830E7C280F8
:10035B00AA75F020800E75F010800575F0087D00F1
:10036B007E007F003392D530D5031207AAEC3340C1
:10037B0010EF33FFEE33FEED33FDEC33FCD5F0ED38
:10038B0022E5F0247EA2D513CC92E7CDCEFF22ED51
:10039B00D2E7CD33EC3392D524814006E4FFFEFD4A
:1003AB00FC22FCE4CFCECDCC24E0501174FF80EDC9
:1003BB00C3CC13CCCD13CDCE13CECF13CF0470F053
:1003CB0030D5DE0207AAE9D2E7C933E833F892D574
:1003DB00EDD2E7CD33EC33FC5002B2D522EC30E753
:1003EB00100FBF000C0EBE00080DBD00040BEB6020
:1003FB0014A2D5EB13FCED92E7FD2274FFFCFDFE7E
:10040B00FF22E480F8A2D574FF13FC7D80E480EF1B
:10041B00F920E73624F950037907E4F42402FBE5CD
:10042B0082158270021583DBF6E024FB501BE9601A
:10043B0014E4F0E582158270021583E004F0B40A2F
:10044B0008E4F0D9EE7401F00A22C2D522ED33ECA8
:10045B003392D5FA602AB4FF33EDC2E77BFF600617
:10046B007A04797DE4227A04798620D5047A04799A
:10047B0081224E614E002B494E46002D494E4600BF
:10048B00E47A08F0A3DAFC7B00740722C083C082F5
:10049B00ECC0E0EDC0E0EEC0E0EFC0E0EA75F010BC
:1004AB00A4CAABF075F04DA42BFBE435F0FCEA24A9
:1004BB0010FAEB34C5FBEC34D9FCEDC2E7FF75F059
:1004CB0056A4F42411C5F0F434C58FF0A42AE5F03A
:1004DB003BE43CF020E7141205DAD0E0FFD0E0FE5D
:1004EB00D0E0FDD0E0FC1202BF8014F4041205DA58
:1004FB00D0E0FFD0E0FED0E0FDD0E0FC1201B6D0A2
:10050B0082D083E0FAEDD2E7CD33EC332482FBE4E7
:10051B00C3CF33CFCE33CECD33CD33DBF37B0775A8
:10052B00F00A846004F0A31B0AE5F0F0A38FF074CB
:10053B000AA4FFACF08EF0740AA42CFEACF05001B0
:10054B000C8DF0740AA42CFDE435F0F0A3DBDE7403
:10055B000722C0E0EFFBEEFAEDF9ECF81201B6D092
:10056B00E0F5F0EFFBEEFAEDF9ECF81207B8A3A308
:10057B00A3A3E8C0E0E9C0E0EAC0E0EBC0E0C0F054
:10058B001201B61207D4A3A3A3A31200C5D0F0D0B7
:10059B00E0FBD0E0FAD0E0F9D0E0F8D5F0D4223F80
:1005AB008000004120000042C80000447A00004651
:1005BB001C400047C35000497424004B1896804CD4
:1005CB00BEBC205A0E1BCA6753C21C749DC5AEFB22
:1005DB0060065407601C2323120608EB543860098D
:1005EB001205F41206031201B6ECF8EDF9EEFAEF70
:1005FB00CB22EB12060380F1543803241C9005AA7E
:10060B00FE93FC0EEE93FD0EEE930ECE93FF22BBEC
:10061B00010689828A83E0225002E722BBFE02E3B5
:10062B002289828A83E49322BB010CE58229F5821D
:10063B00E5833AF583E0225006E92582F8E622BBF2
:10064B00FE06E92582F8E222E58229F582E5833A66
:10065B00F583E49322BB010689828A83F022500240
:10066B00F722BBFE01F322F8BB010DE58229F582CF
:10067B00E5833AF583E8F0225006E92582C8F62295
:10068B00BBFE05E92582C8F222EF8DF0A4A8F0CFBE
:10069B008CF0A428CE8DF0A42EFE22BC000BBE0045
:1006AB0029EF8DF084FFADF022E4CCF875F008EF64
:1006BB002FFFEE33FEEC33FCEE9DEC984005FCEE89
:1006CB009DFE0FD5F0E9E4CEFD22EDF8F5F0EE84BA
:1006DB0020D21CFEADF075F008EF2FFFED33FD407F
:1006EB0007985006D5F0F222C398FD0FD5F0EA22F9
:1006FB00C2D5EC30E709B2D5E4C39DFDE49CFCEE1A
:10070B0030E715B2D5E4C39FFFE49EFE1206A6C3E5
:10071B00E49DFDE49CFC80031206A630D507C3E4E0
:10072B009FFFE49EFE22A3F8E0C5F025F0F0E582E2
:10073B00158270021583E0C838F0E822BB010A89E4
:10074B00828A83E0F5F0A3E022500687F009E719CF
:10075B0022BBFE07E3F5F009E3192289828A83E4C1
:10076B0093F5F074019322BB010789828A830208F7
:10077B0036500B09C5F027F7C5F01937F722BBFE2A
:10078B000D09F8E325F0F3C5F019E338F322F889E6
:10079B00828A8374019325F0C5F0F8E4933822C361
:1007AB00E49FFFE49EFEE49DFDE49CFC22E493FCAD
:1007BB00740193FD740293FE740393FF22E0F8A37C
:1007CB00E0F9A3E0FAA3E0FB22E493F8740193F9B8
:1007DB00740293FA740393FB22ECF0A3EDF0A3EEF7
:1007EB00F0A3EFF022F8E0FBA3A3E0F925F0F0E58E
:1007FB0082158270021583E0FA38F022EBF0A3EA3F
:10080B00F0A3E9F022D083D082F8E4937012740144
:10081B0093700DA3A393F8740193F5828883E4730B
:10082B007402936860EFA3A3A380DFC5F0F8A3E085
:10083B0028F0C5F0F8E582158270021583E038F0D8
:10084B0022E5102411F582E43402F583E005102231
:10085B0090020E300703900211E475F0011207F0BD
:10086B0002061A2000E97F2ED2008018EF540F24C5
:10087B0090D43440D4FF30040BEF24BFB41A005093
:10088B00032461FFE511600215110514E5147002D4
:10089B00051330070E90020EE475F0011207F0EF0E
:1008AB000206600217627403D2078003E4C207F5E5
:1008BB001090020E120807E4F511F513F514E5116B
:1008CB0060077F2012088F80F57512FFC201C200EE
:1008DB00C202C203C205C206C20812085BFF700D3A
:1008EB003007057F001208A0AF14AE1322B4255FAA
:1008FB00C2D5C20412085BFF24D0B40A00501A758B
:10090B00F00A781130D50508B6FF0106C6A426F605
:10091B0020D5047002D20380D924CFB41A00EF5033
:10092B0004C2E5D204020B92D20180C6D20080C071
:10093B00D20280BCD2D580BAD20580B47F201208F7
:10094B008F2002077401B5110040F112084CFF1201
:10095B00088F0208C9D208D206809512084CFB12E8
:10096B00084CFA12084CF94A4B700679907A0C7BBA
:10097B00FF20022EE511602A7E008E827583001205
:10098B00063360060EEE651270F0C2D5EBC0E0EADE
:10099B00C0E0E9C0E0EE120BF3D0E0F9D0E0FAD002
:1009AB00E0FB12061AFF60AAEBC0E0EAC0E0E9C068
:1009BB00E012088FD0E02401F9D0E03400FAD0E047
:1009CB00FBE5120460DCD512D98087D20280A2121B
:1009DB000BD560F7E51270010412041BA912600D10
:1009EB00E512600914F512120C7DEF60F3EA30E7A3
:1009FB0002F404C3995079EAF425120430E701E4B8
:100A0B0004F512800D120BD560C1EA0512251212E6
:100A1B00041BEA90023DF030E701E4251204D512E5
:100A2B000420050114120BF3E4C0E0120C7D9002BC
:100A3B003DE0601320E70714F0120877802204F0E2
:100A4B00D0E014C0E07F00120877E51260071208AF
:100A5B006E1512800B30050312086ED0E00208C928
:100A6B00D0E00480C4120BD5609EE5120412041B67
:100A7B0090023DEAF0E51220050260010424041205
:100A8B000BF374FF04C0E0120C7D120877E5122003
:100A9B000502600312086ED0E0B512E87F4512081C
:100AAB008190023DE07F2B30E7047F2DF404C0E002
:100ABB0012088FD0E075F00A84C0F0120878D0E0ED
:100ACB001208780208C9791080027908C206C20898
:100ADB008008D2D5790A8004790AC2D5E512047050
:100AEB0002F512E4FAFDFEFF12084CFC7B08200114
:100AFB001312084CFD7B1030000A12084CFE120832
:100B0B004CFF7B20EC3382D592D55013C3E43000DD
:100B1B00069FFFE49EFEE42001039DFDE49CFCE4A4
:100B2B00CBF8C201EC700CCFCECDCCE824F8F8702A
:100B3B00F38017C3EF33FFEE33FEED33FDEC33FCE5
:100B4B00EB33FB994002FB0FD8E9EB300105F8D0F2
:100B5B00E0C448B201C0E00AEC4D4E4F78207B0058
:100B6B0070C2EAB5120040BCC0E0120BF5D0F0D059
:100B7B00E0200104C4C0E0C4B201C0F0120878D078
:100B8B00F0D5F0EB0208C91208100966530AD158C8
:100B9B0009374C0933420AD54F0ADD440ADD4909AE
:100BAB004C430AE3550A10460A704509DA470CB064
:100BBB0050093B2D093F2E09622B09432309602065
:100BCB000C992A08FB480000095AE512B4FF03757B
:100BDB00120612084CFC12084CFD12084CFE1208AF
:100BEB004CFF900236020458790AA2D52003143028
:100BFB000509B910020404B9080104A2D5200602A4
:100C0B005001042002689202B511005034C0E07FFD
:100C1B00203003197F30A20272067205500F120C9E
:100C2B004CC202C206C205C2087F30800F300503DA
:100C3B00E9C0E012088F300503D0E0F9D0E0B51120
:100C4B00CC3005177F30B9100C12088F7F58300449
:100C5B00077F788003B9080312088F3002057F2DB8
:100C6B0002088F7F202008F87F2B2006F3229202A8
:100C7B0080CF7F00B40700500B2436F582E434029A
:100C8B00F583E0FF22286E756C6C2900D2011208E7
:100C9B004C3001F8C201781130D50108F60208FB7F
:100CAB002D5043495812084C2403B405004001E46D
:100CBB00900CAB93120880743A120880D203751112
:100CCB0004020AD190026EEEF0A3EFF0A3ECF0A3B6
:100CDB00EDF0A3EAF0A3EBF0E4A3F0A3F090026E27
:100CEB00E0FCA3E0FDE4120361A804A905AA06AB8E
:100CFB0007E4FFFE7DB47C431202BF90027E120715
:100D0B00E4900272E07004A3E064506003020E2FC3
:100D1B00900022E0FF7E00900270E0FCA3E0FD1249
:100D2B000694EF2401FFE43EFE900270F0A3EFF077
:100D3B00D394B8EE940B400A900270740BF0A3742A
:100D4B00B8F0E4900274F0A3F090026EE0FEA3E022
:100D5B00FF900274E0FCA3E0FDC39FEC9E400302F6
:100D6B000F42E412036190027EE0F8A3E0F9A3E0E6
:100D7B00FAA3E0FB1201B690027A1207E47F557ECC
:100D8B00DE7D8E7C3C90027AE0F8A3E0F9A3E0FADA
:100D9B00A3E0FB1201B69002761207E4900276E014
:100DAB00FCA3E0FDA3E0FEA3E0FF12118DC004C085
:100DBB0005C006C007900270E0C313FEA3E0132426
:100DCB00FAFDEE34FFFCE4120361D003D002D00134
:100DDB00D0001201B67B007A9079BB78441200C523
:100DEB0012039AAD07AC06900275E025E0FF900266
:100DFB0074E033FE74242FF58274003EF583ECF01F
:100E0B00A3EDF074242FF58274003EF583A3E0FF6D
:100E1B00120003900275E004F07006900274E00477
:100E2B00F0020D54900272E07004A3E06460600362
:100E3B00020F42900023E0FF7E00900270E0FCA3C3
:100E4B00E0FD120694EF2401FFE43EFE900270F0E9
:100E5B00A3EFF0D394C4EE9409400A900270740986
:100E6B00F0A374C4F0E4900274F0A3F090026EE06F
:100E7B00FEA3E0FF900274E0FCA3E0FDC39FEC9E99
:100E8B004003020F42E412036190027EE0F8A3E0FC
:100E9B00F9A3E0FAA3E0FB1201B690027A1207E481
:100EAB007F557EDE7D8E7C3C90027AE0F8A3E0F9E4
:100EBB00A3E0FAA3E0FB1201B69002761207E490CE
:100ECB000276E0FCA3E0FDA3E0FEA3E0FF12118D90
:100EDB00C004C005C006C007900270E0C313FEA398
:100EEB00E01324FAFDEE34FFFCE4120361D003D0CF
:100EFB0002D001D0001201B67B007A50799C784465
:100F0B001200C512039AAD07AC06900275E025E0FE
:100F1B00FF900274E033FE74242FF58274003EF5CB
:100F2B0083ECF0A3EDF0900275E004F070069002F4
:100F3B0074E004F0020E77226020024100000000F2
:100F4B000000000000000000000000000000000096
:100F5B000000000000000000000000004102400003
:100F6B004102610042023E00C84200040000420000
:100F7B0000000042000200004201B60000410022C6
:100F8B00974100237E6190002404B004D604FB0536
:100F9B00210546056C059105B605DA05FF06230606
:100FAB00460669068C06AF06D006F2071207330712
:100FBB00520771078F07AC07C907E50800081A0825
:100FCB0034084C0864087A089008A508B808CB08C0
:100FDB00DD08ED08FD090B091909250930093A0946
:100FEB0043094B09510956095B095E095F09600901
:100FFB005F095E095B09570951094B0943093B0915
:10100B00310926091A090C08FE08EF08DE08CC087E
:10101B00BA08A60892087C0865084E0836081C0812
:10102B000207E707CB07AF0791077307540735078D
:10103B001506F406D306B1068F066C06490625067F
:10104B000105DD05B80594056E0549052404FE046C
:10105B00D904B3048D04680442041D03F703D203BF
:10106B00AD038903640340031D02F902D602B402E7
:10107B0092027102500230021001F101D301B6014C
:10108B0099017D01620148012E011600FE00E70067
:10109B00D200BD00A90096008500740064005600C4
:1010AB0048003C00310027001E0016000F000A000C
:1010BB00060003000100000000000200050009000B
:1010CB000E0014001C0025002E00390045005300B3
:1010DB006100700081009200A500B800CD00E20015
:1010EB00F9011001290142015C0177019301AF0164
:1010FB00CC01EA0209022902490269028A02AC0206
:10110B00CE02F103140338035C038003A503CA0367
:10111B00EF04140439045F04854201B4000042005B
:10112B00200000003A70FA83BCAAE9E43E81E0F8A3
:10113B00BF9DE9E63F80000039283C1ABB996966E0
:10114B003DA335E3BF255DE73FC90FDB418DDBCC0D
:10115B00C44936EE45C9913FC5B0F83D3F8000000C
:10116B00C317F534452FFA73C60AFDDD1212380486
:10117B00A2E192091420E01590112F740412055D61
:10118B00803012123830E102B20920E0EBA883A9BB
:10119B00829002821207E48982888390114374043F
:1011AB0012055D8582F09002821207C885F08212CB
:1011BB0001B6ED4C6007300904EC6480FC2212127E
:1011CB0038C0E0A883A9829002821207E489828842
:1011DB0083901167740312055D8582F09002821271
:1011EB0007C885F0821201B6900282E0CCF0A3E032
:1011FB00CDF0A3E0CEF0A3E0CFF090115774031223
:10120B00055DD0828582F09002821207C885F0823C
:10121B00E58230E0071202BFB2098096EFCBFFEEFA
:10122B00CAFEEDC9FDECC8FC1202BF8085ED33ECA4
:10123B00547FCC33920924605007D0E0D0E00204F5
:10124B00067B837AF97922783E1201B6EDF933ECFD
:10125B00F83324815011EFFBEEFA12039A12035C60
:10126B00ECB2E7FC1200C5ED33EC33602F2403F82E
:10127B00C313FCED92E7FDE82481E4501FECF8ED7D
:10128B00F9EEFAEFFB12039AEF04C2E0FCF58212BF
:10129B000366ECB2E7FC1200C5E58203FAED33EC12
:1012AB003360071413FCED92E7FDEA22EF64504E16
:1012BB00700C900263740BF0A374B8F08013EF649E
:1012CB00604E60030213D59002637409F0A374C4DB
:1012DB00F0E4900262F01218699001B4EEF0A3EF03
:1012EB00F0900262E004F0E0C3946440E99001B432
:1012FB00E0FCA3E0FDC39428EC9400504C7E0B7FE4
:10130B00B81206A6AC06AD07E41203617BF47AFDB6
:10131B0079B4783F1201B612039A900022EFF09045
:10132B0001B4E0FCA3E0FD7E097FC41206A6AC0667
:10133B00AD07E41203617BF47AFD79B4783F1201B7
:10134B00B612039A900023EFF043BA80E4F5F190C4
:10135B00FFF2F0900263E0FFA3E090FFF0CFF0A369
:10136B00EFF090FF10E4F0A3F0A3F0A37464F0A3EC
:10137B00E4F043F50253F1FDC2A190FF20F0A3F07E
:10138B00A3F0A37469F0A3E4F043F50443F104D292
:10139B00A290FF40F0A3F0A3F0A37464F0A3E4F0D9
:1013AB0043F51053F1EFC29690FF50F0A3F0A3F06A
:1013BB00A37469F0A3E4F043F52043F120D29743E3
:1013CB00F54043F58053BA7FD2AF227B017A017986
:1013DB00B81215B2EF6409600302149F9001BAE0D2
:1013EB00FF90020AE4F0A3EFF09001BFE0FEA3E050
:1013FB00FDEDFF90020CEEF0A3EFF07C007D0A12E6
:10140B0006A690020CEEF0A3EFF0D3941CEE940022
:10141B00400990020CE4F0A3741CF0C390020DE0A1
:10142B00940190020CE094005005E4F0A304F090BA
:10143B00021174FFF0A37418F0A37453F090020A16
:10144B00E0FFA3E0900214CFF0A3EFF07B017A0151
:10145B0079D81208B112169290021174FFF0A3748E
:10146B0018F0A37460F090020CE0FFA3E09002145C
:10147B00CFF0A3EFF07B017A0179D81208B11216E5
:10148B009290020AE0FEA3E0FFA3E0FCA3E0FD12B2
:10149B001609D28422787FE4F6D8FD7581210214D7
:1014AB00E702173BE493A3F8E493A34003F6800110
:1014BB00F208DFF48029E493A3F85407240CC8C383
:1014CB0033C4540F4420C8834004F456800146F6BD
:1014DB00DFE4800B0102040810204080900F43E4EE
:1014EB007E019360BCA3FF543F30E509541FFEE41B
:1014FB0093A360010ECF54C025E060A840B8E493DD
:10150B00A3FAE493A3F8E493A3C8C582C8CAC5831E
:10151B00CAF0A3C8C582C8CAC583CADFE9DEE780A3
:10152B00BEC0E0C0F0C083C082C0D075D008E4FF5D
:10153B00FEE5F630E66653F6BF43BA80900021E035
:10154B0025E0FF900020E033FE74242FF582740019
:10155B003EF583E0FEA3E0FF90FF12EEF0A3EFF069
:10156B0090FF42EEF0A3EFF02405FFE43EFE90FF68
:10157B0022F0A3EFF090FF52EEF0A3EFF053BA7FFF
:10158B00900020E475F001120731FED3E5F094C80A
:10159B00EE94004007900020E4F0A3F0D0D0D0826E
:1015AB00D083D0F0D0E032900286EBF0A3EAF0A328
:1015BB00E9F0E4A3F0900261E0FF900240E06F607D
:1015CB003774412FF582E43402F583E0FF900286F5
:1015DB00E0FBA3E0FAA3E0F9A3E0F582758300EF4B
:1015EB00120672900289E004F0900261E004F07F31
:1015FB00147E001217CF80BD900289E0FF22EF64AA
:10160B00504E700C900262740BF0A374B8F0801003
:10161B00EF64604E702F9002627409F0A374C4F0F3
:10162B0043BA80900262E0FBA3E090FFF0CBF0A303
:10163B00EBF053BA7F900002ECF0A3EDF09001B603
:10164B00EEF0A3EFF022900004E07002A3E070280C
:10165B00900004F0A37402F07B017A0079009000F3
:10166B0002E0FCA3E0FD9001B6E0FFA3E090026C6A
:10167B00CFF0A3EFF01216CB900005E024FFF09013
:10168B000004E034FFF0227B017A0179D890028AC2
:10169B00EBF0A3EAF0A3E9F090028AE0FBA3E0FAF7
:1016AB00A3E0F912061A601790028AA3E475F00101
:1016BB00120731A9F0FA12061AFF12000380D92281
:1016CB00120747FFAEF06D7002EE6C602BD3EF9DEF
:1016DB00EE9C400674FFF5F08004E475F0011207F0
:1016EB0072120747FDACF090026CE0FAA3E0FB7FAF
:1016FB00C87E00120CCFC28422C0E0C083C082C05F
:10170B00D0E5AC30E01953ACFE900240E02441F53B
:10171B0082E43402F583E5ADF0900240E004F0E59D
:10172B00AC30E10353ACFDD0D0D082D083D0E032CB
:10173B001217ED12183C12182412187E121891C2AF
:10174B00B4D2847F507E001212B77D147C007F5080
:10175B007E0012160980FEEFB40A07740D12176D86
:10176B00740A309811A899B8130CC2983098FDA838
:10177B0099C298B811F63099FDC299F59922EF44A8
:10178B0088F5BC00000000E5BC30E4FB53BCEFAFB8
:10179B00BD7E00EF7802C333CE33CED8F9FFADBE9A
:1017AB00EF4DFF22C0E0C0F0C083C082C0D075D027
:1017BB0008B2B512008E121651D0D0D082D083D081
:1017CB00F0D0E032D3EF9400EE940040147D267CF1
:1017DB0002ED1D70011CED4C70F7EF1F70E61E80C3
:1017EB00E32275B2FFE4F5B17594FF75930175B4FF
:1017FB00FFF5B37592FF759103F596F59522EF1FE3
:10180B00AA0670011E4A60107C137D88ED1DAA0488
:10181B0070011C4A60E880F42275AC1043AC404365
:10182B00D10275D5F375D4FC43D10875AF08D2AF8F
:10183B0022759850438E40538EFE53890F758BF350
:10184B00758DFCC2ABD28E22706C763A25627520F8
:10185B00687A0D0A00566F6C3A25640D0A00E4FF96
:10186B00FE12000E7C007D361206947C037DE8127E
:10187B0006A622538E7F5389F0758A58758C9EC2AB
:10188B008DD28CD2A922759D03E4F5BD75BC897FE1
:05189B0002FE02180925
:00000001FF
