:1000000002145A8F993099FDC299220217E8900282
:100010000CEEF0A3EFF0A3ECF0A3EDF043BA809068
:10002000020CE0FEA3E0FBAA06E4F9F87FF07E49AB
:100030007D02FC12167CAE02AF03C006C007900220
:100040000CE0FEA3E0FBAA06E4F9F87FF07E497D10
:1000500002FC12167CD0E02FFFD0E03E90FFF0F0C3
:10006000A3EFF053BA7F90020EE0FFA3E0900002EE
:10007000CFF0A3EFF090020CE0FFA3E09001B4CF2B
:09008000F0A3EFF02253F7FE3269
:10008B0002173A90025FE07002A3E0701890025FD3
:10009B00F0A3740AF07F011217C2D3EF94C6EE944B
:0600AB00024002D2842293
:0300B3000214E64E
:1000BB00020085020406E86480F8E933E833601136
:1000CB000460F0ED33EC337009E8FCE9FDEAFEEB7C
:1000DB00FF220460DED3EB9FEA9EE99DE8C2E78C2A
:1000EB00F0C2F795F0400CE8CCF8E9CDF9EACEFA7E
:1000FB00EBCFFB1203D185D0F05804700320D5B39E
:10010B00E80470075002B2D502041092D5EC0460DB
:10011B00F7E4CCC0E0C398F8603B94186008400D3E
:10012B00D0E0FB0203E8E4FBFAC9FC8028E830E4EA
:10013B0006E4C9FBE4CAFCE830E305E4C9CACBFC1E
:10014B00E854076010F8C3E913F9EA13FAEB13FB51
:10015B00EC13FCD8F130F52FC3E49CFCEF9BFFEEC6
:10016B009AFEED99FDD0E0FBEF4E4D4C701222DB69
:10017B000302040DEC2CFCEF33FFEE33FEED33FDED
:10018B00ED30E7EB0203E8EF2BFFEE3AFEED39FD26
:10019B00D0E0FB50130BBB0003020410ED13FDEE7C
:1001AB0013FEEF13FFEC13FC0203E8EC4D6011E8B8
:1001BB00497017ED33EC3304600DE4FCFFFEFD22B8
:1001CB00E933E8330470F80204061203D1580460D3
:1001DB0009E4CC248150062850090204102840035E
:1001EB0002040DC0E0EB4A7044B98006D0E0FB027C
:1001FB0003FCEF4E701CBD8008EBFFEAFEE9FD80AF
:10020B00EBE98DF0A4FEE5F002029FE9CDF9EAFEE1
:10021B00EBFFEF89F0A4FCE5F0CE89F0A42EFFE410
:10022B0035F0CD89F0A42DFEE435F08067EF4E70EC
:10023B0005BD80D780C3EF8BF0A4ACF0EE8BF0A4A0
:10024B002CFCE435F0F8EF8AF0A42CE5F038FCE454
:10025B0033CB8DF0A42CFCE5F03BF8EE8AF0A42C0C
:10026B00FCE5F038F8E433CF89F0A42CFCE5F0384A
:10027B00CF3400CE89F0A42FFFE5F03EFEE433C966
:10028B008DF0A42EFEE5F039CD8AF0A42FFFE5F01A
:10029B003EFEE43DFD33D0E0FB50070BBB000F02ED
:1002AB000410EC2CFCEF33FFEE33FEED33FD0203B9
:1002BB00E8020410EC5D046005E8590470030204C5
:1002CB00061203D1580460F6EC4860F2EC7004FDA2
:1002DB00FEFF22C860DB2481C85009C3986002501E
:1002EB000602040D9850CAF582E9294B4A7005ABFA
:1002FB00820203FC75F0007C1A7880C3EF9BEE9AA8
:10030B00ED99400DC3EF9BFFEE9AFEED99FDE84290
:10031B00F0DC23ACF0D0E0FFD0E0FED0E0FDAB8210
:10032B0020E7101BEB60BAEC2CFCEF33FFEE33FE37
:10033B00ED33FD0203E8E803F830E705C0F075F094
:10034B0000EF2FFFEE33FEED33FD40B830E7C280F8
:10035B00AA75F020800E75F010800575F0087D00F1
:10036B007E007F003392D530D5031207C0EC3340AB
:10037B0010EF33FFEE33FEED33FDEC33FCD5F0ED38
:10038B0022E5F0247EA2D513CC92E7CDCEFF22ED51
:10039B00D2E7CD33EC3392D524814006E4FFFEFD4A
:1003AB00FC22FCE4CFCECDCC24E0501174FF80EDC9
:1003BB00C3CC13CCCD13CDCE13CECF13CF0470F053
:1003CB0030D5DE0207C0E9D2E7C933E833F892D55E
:1003DB00EDD2E7CD33EC33FC5002B2D522EC30E753
:1003EB00100FBF000C0EBE00080DBD00040BEB6020
:1003FB0014A2D5EB13FCED92E7FD2274FFFCFDFE7E
:10040B00FF22E480F8A2D574FF13FC7D80E480EF1B
:10041B00F920E73624F950037907E4F42402FBE5CD
:10042B0082158270021583DBF6E024FB501BE9601A
:10043B0014E4F0E582158270021583E004F0B40A2F
:10044B0008E4F0D9EE7401F00A22C2D522ED33ECA8
:10045B003392D5FA602AB4FF33EDC2E77BFF600617
:10046B007A04797DE4227A04798620D5047A04799A
:10047B0081224E614E002B494E46002D494E4600BF
:10048B00E47A08F0A3DAFC7B00740722C083C082F5
:10049B00ECC0E0EDC0E0EEC0E0EFC0E0EA75F010BC
:1004AB00A4CAABF075F04DA42BFBE435F0FCEA24A9
:1004BB0010FAEB34C5FBEC34D9FCEDC2E7FF75F059
:1004CB0056A4F42411C5F0F434C58FF0A42AE5F03A
:1004DB003BE43CF020E7141205DAD0E0FFD0E0FE5D
:1004EB00D0E0FDD0E0FC1202BF8014F4041205DA58
:1004FB00D0E0FFD0E0FED0E0FDD0E0FC1201B6D0A2
:10050B0082D083E0FAEDD2E7CD33EC332482FBE4E7
:10051B00C3CF33CFCE33CECD33CD33DBF37B0775A8
:10052B00F00A846004F0A31B0AE5F0F0A38FF074CB
:10053B000AA4FFACF08EF0740AA42CFEACF05001B0
:10054B000C8DF0740AA42CFDE435F0F0A3DBDE7403
:10055B000722C0E0EFFBEEFAEDF9ECF81201B6D092
:10056B00E0F5F0EFFBEEFAEDF9ECF81207CEA3A3F2
:10057B00A3A3E8C0E0E9C0E0EAC0E0EBC0E0C0F054
:10058B001201B61207EAA3A3A3A31200C5D0F0D0A1
:10059B00E0FBD0E0FAD0E0F9D0E0F8D5F0D4223F80
:1005AB008000004120000042C80000447A00004651
:1005BB001C400047C35000497424004B1896804CD4
:1005CB00BEBC205A0E1BCA6753C21C749DC5AEFB22
:1005DB0060065407601C2323120608EB543860098D
:1005EB001205F41206031201B6ECF8EDF9EEFAEF70
:1005FB00CB22EB12060380F1543803241C9005AA7E
:10060B00FE93FC0EEE93FD0EEE930ECE93FF22BBEC
:10061B00010689828A83E0225002E722BBFE02E3B5
:10062B002289828A83E49322BB010CE58229F5821D
:10063B00E5833AF583E0225006E92582F8E622BBF2
:10064B00FE06E92582F8E222E58229F582E5833A66
:10065B00F583E49322BB010689828A83F022500240
:10066B00F722BBFE01F322F8BB010DE58229F582CF
:10067B00E5833AF583E8F0225006E92582C8F62295
:10068B00BBFE05E92582C8F222EF8DF0A4A8F0CFBE
:10069B008CF0A428CE8DF0A42EFE22BC000BBE0045
:1006AB0029EF8DF084FFADF022E4CCF875F008EF64
:1006BB002FFFEE33FEEC33FCEE9DEC984005FCEE89
:1006CB009DFE0FD5F0E9E4CEFD22EDF8F5F0EE84BA
:1006DB0020D21CFEADF075F008EF2FFFED33FD407F
:1006EB0007985006D5F0F222C398FD0FD5F0EA22F9
:1006FB00C2D5EC30E709B2D5E4C39DFDE49CFCEE1A
:10070B0030E715B2D5E4C39FFFE49EFE1206A6C3E5
:10071B00E49DFDE49CFC80031206A630D507C3E4E0
:10072B009FFFE49EFE22C5F0F8A3E028F0C5F0F889
:10073B00E582158270021583E038F022A3F8E0C53C
:10074B00F025F0F0E582158270021583E0C838F0D1
:10075B00E822BB010A89828A83E0F5F0A3E02250EC
:10076B000687F009E71922BBFE07E3F5F009E31949
:10077B002289828A83E493F5F074019322BB0107EB
:10078B0089828A83020731500B09C5F027F7C5F020
:10079B001937F722BBFE0D09F8E325F0F3C5F01965
:1007AB00E338F322F889828A8374019325F0C5F02C
:1007BB00F8E4933822C3E49FFFE49EFEE49DFDE43E
:1007CB009CFC22E493FC740193FD740293FE74036E
:1007DB0093FF22E0F8A3E0F9A3E0FAA3E0FB22E405
:1007EB0093F8740193F9740293FA740393FB22EC5C
:1007FB00F0A3EDF0A3EEF0A3EFF022F8E0FBA3A340
:10080B00E0F925F0F0E582158270021583E0FA38E5
:10081B00F022EBF0A3EAF0A3E9F022D083D082F828
:10082B00E4937012740193700DA3A393F874019366
:10083B00F5828883E4737402936860EFA3A3A380AB
:10084B00DF75F008758200EF2FFFEE33FECD33CD51
:10085B00CC33CCC58233C5829BED9AEC99E582985B
:10086B00400CF582EE9BFEED9AFDEC99FC0FD5F05A
:10087B00D6E4CEFBE4CDFAE4CCF9A88222B800C1D1
:10088B00B90059BA002DEC8BF084CFCECDFCE5F03E
:10089B00CBF97818EF2FFFEE33FEED33FDEC33FC85
:1008AB00EB33FB10D703994004EB99FB0FD8E5E42E
:1008BB00F9FA227818EF2FFFEE33FEED33FDEC3310
:1008CB00FCC933C910D7059BE99A4007EC9BFCE99F
:1008DB009AF90FD8E0E4C9FAE4CCFB2275F010EFDB
:1008EB002FFFEE33FEED33FDCC33CCC833C810D71E
:1008FB00079BEC9AE899400AED9BFDEC9AFCE89972
:10090B00F80FD5F0DAE4CDFBE4CCFAE4C8F922E534
:10091B0010240FF582E43402F583E00510229002D7
:10092B000C30070390020FE475F001120806020663
:10093B001A2000E97F2ED2008018EF540F2490D498
:10094B003440D4FF30040BEF24BFB41A00500324FF
:10095B0061FFE511600215110514E5147002051312
:10096B0030070E90020CE475F001120806EF020638
:10097B006002179B7403D2078003E4C207F5109043
:10098B00020C12081DE4F511F513F514E5116007BF
:10099B007F2012095D80F57512FFC201C200C202F1
:1009AB00C203C205C206C208120929FF700D300727
:1009BB00057F0012096EAF14AE1322B4255FC2D5AA
:1009CB00C204120929FF24D0B40A00501A75F00A88
:1009DB00781130D50508B6FF0106C6A426F620D53A
:1009EB00047002D20380D924CFB41A00EF5004C292
:1009FB00E5D204020C60D20180C6D20080C0D202C4
:100A0B0080BCD2D580BAD20580B47F2012095D207C
:100A1B0002077401B5110040F112091AFF12095DAA
:100A2B00020997D208D206809512091AFB12091AED
:100A3B00FA12091AF94A4B7006795E7A0D7BFF2080
:100A4B00022EE511602A7E008E827583001206331A
:100A5B0060060EEE651270F0C2D5EBC0E0EAC0E0A6
:100A6B00E9C0E0EE120CC1D0E0F9D0E0FAD0E0FB27
:100A7B0012061AFF60AAEBC0E0EAC0E0E9C0E01280
:100A8B00095DD0E02401F9D0E03400FAD0E0FBE5B9
:100A9B00120460DCD512D98087D20280A2120CA37B
:100AAB0060F7E51270010412041BA912600DE51228
:100ABB00600914F512120D4BEF60F3EA30E702F404
:100ACB0004C3995079EAF425120430E701E404F5E4
:100ADB0012800D120CA360C1EA0512251212041B21
:100AEB00EA90023BF030E701E4251204D512042012
:100AFB00050114120CC1E4C0E0120D4B90023BE057
:100B0B00601320E70714F0120945802204F0D0E0AF
:100B1B0014C0E07F00120945E512600712093C156D
:100B2B0012800B30050312093CD0E0020997D0E08C
:100B3B000480C4120CA3609EE5120412041B9002E5
:100B4B003BEAF0E5122005026001042404120CC1FB
:100B5B0074FF04C0E0120D4B120945E5122005028B
:100B6B00600312093CD0E0B512E87F4512094F90A3
:100B7B00023BE07F2B30E7047F2DF404C0E0120929
:100B8B005DD0E075F00A84C0F0120946D0E012097E
:100B9B0046020997791080027908C206C2088008BC
:100BAB00D2D5790A8004790AC2D5E512047002F510
:100BBB0012E4FAFDFEFF12091AFC7B082001131246
:100BCB00091AFD7B1030000A12091AFE12091AFFCE
:100BDB007B20EC3382D592D55013C3E43000069FB3
:100BEB00FFE49EFEE42001039DFDE49CFCE4CBF8B6
:100BFB00C201EC700CCFCECDCCE824F8F870F380AA
:100C0B0017C3EF33FFEE33FEED33FDEC33FCEB3369
:100C1B00FB994002FB0FD8E9EB300105F8D0E0C49B
:100C2B0048B201C0E00AEC4D4E4F78207B0070C2F9
:100C3B00EAB5120040BCC0E0120CC3D0F0D0E020EB
:100C4B000104C4C0E0C4B201C0F0120946D0F0D513
:100C5B00F0EB0209971208260A34530B9F580A052A
:100C6B004C0A01420BA34F0BAB440BAB490A1A4383
:100C7B000BB1550ADE460B3E450AA8470D7E500ABE
:100C8B00092D0A0D2E0A302B0A11230A2E200D676F
:100C9B002A09C94800000A28E512B4FF0375120699
:100CAB0012091AFC12091AFD12091AFE12091AFF6F
:100CBB00900234020458790AA2D520031430050996
:100CCB00B910020404B9080104A2D5200602500190
:100CDB00042002689202B511005034C0E07F20302E
:100CEB0003197F30A20272067205500F120D1AC241
:100CFB0002C206C205C2087F30800F300503E9C06F
:100D0B00E012095D300503D0E0F9D0E0B511CC302D
:100D1B0005177F30B9100C12095D7F583004077F1F
:100D2B00788003B9080312095D3002057F2D020993
:100D3B005D7F202008F87F2B2006F322920280CFC4
:100D4B007F00B40700500B2434F582E43402F583A2
:100D5B00E0FF22286E756C6C2900D20112091A3043
:100D6B0001F8C201781130D50108F60209C92D50DE
:100D7B0043495812091A2403B405004001E4900DAD
:100D8B00799312094E743A12094ED203751104026B
:100D9B000B9F6020026200000000000000000000BA
:100DAB000000000000000000000000000000000038
:100DBB00000000000000410261004102820042027B
:100DCB005F00C84200040000420000000042000225
:100DDB0000004201B400006190002204B004D6046C
:100DEB00FB05210546056C059105B605DA05FF06E1
:100DFB002306460669068C06AF06D006F2071207D5
:100E0B003307520771078F07AC07C907E5080008BE
:100E1B001A0834084C0864087A089008A508B80822
:100E2B00CB08DD08ED08FD090B0919092509300967
:100E3B003A0943094B09510956095B095E095F09D8
:100E4B0060095F095E095B09570951094B094309A1
:100E5B003B09310926091A090C08FE08EF08DE08C0
:100E6B00CC08BA08A60892087C0865084E08360814
:100E7B001C080207E707CB07AF0791077307540757
:100E8B0035071506F406D306B1068F066C06490620
:100E9B0025060105DD05B80594056E0549052404F5
:100EAB00FE04D904B3048D04680442041D03F70344
:100EBB00D203AD038903640340031D02F902D6027A
:100ECB00B40292027102500230021001F101D301FF
:100EDB00B60199017D01620148012E011600FE0049
:100EEB00E700D200BD00A9009600850074006400E5
:100EFB00560048003C00310027001E0016000F0072
:100F0B000A000600030001000000000002000500BB
:100F1B0009000E0014001C0025002E0039004500AE
:100F2B0053006100700081009200A500B800CD0055
:100F3B00E200F9011001290142015C0177019301E3
:100F4B00AF01CC01EA0209022902490269028A02B5
:100F5B00AC02CE02F103140338035C038003A50338
:100F6B00CA03EF04140439045F04854201B2000084
:100F7B00420020000000900243EEF0A3EFF0A3EC40
:100F8B00F0A3EDF0A3EAF0A3EBF0E490024BF0A397
:100F9B00F0FF900259F0A3F0900243E0FCA3E0FDB8
:100FAB00E4120361A804A905AA06AB07E4FFFE7DC2
:100FBB00B47C431202BF9002551207FA900247E02D
:100FCB00FEA3E0FBAA06E4F9F87FF07E497D02FC64
:100FDB0012167CAE02AF03C006C007900247E0FEBC
:100FEB00A3E0FBAA06E4F9F87FF07E497D02FC1230
:100FFB00167CD0E02FFFD0E03EFE900259F0A3EF1D
:10100B00F0900249E0FCA3E0FD1206A6AC06AD078A
:10101B00E41203617BF47AFD79B4783F1201B612C6
:10102B00039A7E00900245E0FCA3E0FD120694EFCC
:10103B002401FFE43EFE900245F0A3EFF09002592D
:10104B00E0FCA3E0FDC39FEC9E5008900245ECF042
:10105B00A3EDF0E490024BF0A3F0900243E0FEA36B
:10106B00E0FF90024BE0FCA3E0FDC39FEC9E40032E
:10107B00021130E4120361900255E0F8A3E0F9A3EA
:10108B00E0FAA3E0FB1201B69002511207FA7F556A
:10109B007EDE7D8E7C3C900251E0F8A3E0F9A3E06C
:1010AB00FAA3E0FB1201B690024D1207FA90024D23
:1010BB00E0FCA3E0FDA3E0FEA3E0FF12118FC00450
:1010CB00C005C006C007900245E0C313FEA3E013A2
:1010DB0024FAFDEE34FFFCE4120361D003D002D0FE
:1010EB0001D0001201B67B007A9079BB78441200D4
:1010FB00C512039AAD07AC0690024CE025E0FF90B9
:10110B00024BE033FE74222FF58274003EF583EC24
:10111B00F0A3EDF090024CE004F0700690024BE06F
:10112B0004F0021065223A70FA83BCAAE9E43E810E
:10113B00E0F8BF9DE9E63F80000039283C1ABB99D7
:10114B0069663DA335E3BF255DE73FC90FDB418DE5
:10115B00DBCCC44936EE45C9913FC5B0F83D3F8065
:10116B000000C317F534452FFA73C60AFDDD1212C2
:10117B003A04A2E192091420E01590113174041283
:10118B00055D803012123A30E102B20920E0EBA883
:10119B0083A98290025B1207FA898288839011459A
:1011AB00740412055D8582F090025B1207DE85F0F8
:1011BB00821201B6ED4C6007300904EC6480FC220E
:1011CB0012123AC0E0A883A98290025B1207FA8937
:1011DB00828883901169740312055D8582F09002F9
:1011EB005B1207DE85F0821201B690025BE0CCF059
:1011FB00A3E0CDF0A3E0CEF0A3E0CFF090115974B3
:10120B000312055DD0828582F090025B1207DE85AA
:10121B00F082E58230E0071202BFB2098096EFCB75
:10122B00FFEECAFEEDC9FDECC8FC1202BF8085EDD6
:10123B0033EC547FCC33920924605007D0E0D0E0DC
:10124B000204067B837AF97922783E1201B6EDF916
:10125B0033ECF83324815011EFFBEEFA12039A12A0
:10126B00035CECB2E7FC1200C5ED33EC33602F24CA
:10127B0003F8C313FCED92E7FDE82481E4501FEC67
:10128B00F8EDF9EEFAEFFB12039AEF04C2E0FCF56E
:10129B0082120366ECB2E7FC1200C5E58203FAED9D
:1012AB0033EC3360071413FCED92E7FDEA22900157
:1012BB00B6EEF0A3EFF0E4A3F01218A29001B2EE99
:1012CB00F0A3EFF09001B8E004F0E0C3946440E9C0
:1012DB0043BA80E4F5F190FFF2F09001B6E0FEA383
:1012EB00E0FBAA06E4F9F87FF07E497D02FC1216BA
:1012FB007CAE02AF03C006C0079001B6E0FEA3E0D0
:10130B00FBAA06E4F9F87FF07E497D02FC12167CFD
:10131B00D0E02FFFD0E03E90FFF0F0A3EFF090FF76
:10132B0010E4F0A3F0A3F0A37464F0A3E4F043F58E
:10133B000253F1FDC2A190FF20F0A3F0A3F0A37420
:10134B0069F0A3E4F043F50443F104D2A290FF400B
:10135B00F0A3F0A3F0A37464F0A3E4F043F51053EF
:10136B00F1EFC29690FF50F0A3F0A3F0A37469F0D5
:10137B00A3E4F043F52043F120D29743F54043F526
:10138B008053BA7FD2AF227B017A0179B61215DD79
:10139B00EF70030214599001B8E0FF900208E4F0DB
:1013AB00A3EFF09001BDE0FEA3E0FDEDFF90020A7C
:1013BB00EEF0A3EFF07C007D0A1206A690020AEE77
:1013CB00F0A3EFF0D3941CEE9400400990020AE4D2
:1013DB00F0A3741CF0C390020BE0940190020AE09E
:1013EB0094005005E4F0A304F090020F74FFF0A3F7
:1013FB007418F0A3748CF0900208E0FFA3E0900245
:10140B0012CFF0A3EFF07B017A0179D612097F128C
:10141B00170190020F74FFF0A37418F0A37499F0E6
:10142B0090020AE0FFA3E0900212CFF0A3EFF07B53
:10143B00017A0179D612097F121701900208E0FE9A
:10144B00A3E0FFA3E0FCA3E0FD12000ED284227800
:10145B007FE4F6D8FD7581210214A1021771E49384
:10146B00A3F8E493A34003F68001F208DFF480298C
:10147B00E493A3F85407240CC8C333C4540F44207B
:10148B00C8834004F456800146F6DFE4800B01026A
:10149B00040810204080900D9DE47E019360BCA356
:1014AB00FF543F30E509541FFEE493A360010ECFB8
:1014BB0054C025E060A840B8E493A3FAE493A3F8E2
:1014CB00E493A3C8C582C8CAC583CAF0A3C8C582A2
:1014DB00C8CAC583CADFE9DEE780BEC0E0C0F0C082
:1014EB0083C082C0D075D008E4FFFEE5F630E66617
:1014FB0053F6BF43BA80900021E025E0FF90002017
:10150B00E033FE74222FF58274003EF583E0FEA3D8
:10151B00E0FF90FF12EEF0A3EFF090FF42EEF0A38E
:10152B00EFF02405FFE43EFE90FF22F0A3EFF090D6
:10153B00FF52EEF0A3EFF053BA7F900020E475F06A
:10154B0001120731FEC3E5F094C8EE9400400790FA
:10155B000020E4F0A3F0D0D0D082D083D0F0D0E044
:10156B0032E49001B9F0A3F0FF1217C290001EEE07
:10157B00F0A3EFF0E4FDFCED25E0FFEC33FE740887
:10158B002FF58274003EF583E0FAA3E0FB74062F7F
:10159B00F58274003EF583EAF0A3EBF074062FF5A9
:1015AB008274003EF583E0FEA3E0FF9001BAE02FCA
:1015BB00F09001B9E03EF00DBD00010CED640C4C58
:1015CB0070B59001B9E0FEA3E0FF7C007D0C120624
:1015DB00FB2290020CEBF0A3EAF0A3E9F0E4A3F0FA
:1015EB00900282E0FF900261E06F603774622FF52A
:1015FB0082E43402F583E0FF90020CE0FBA3E0FAF7
:10160B00A3E0F9A3E0F582758300EF120672900256
:10161B000FE004F0900282E004F07F147E001218B9
:10162B000880BD90020FE0FF2212075DFFAEF06D48
:10163B007002EE6C603AD3EF9DEE9C400674FFF5A2
:10164B00F08004E475F00112078812075DFDACF021
:10165B00900241E0FAA3E0FB9001B2E0FFA3E0901F
:10166B000249CFF0A3EFF07FC87E00120F81C28436
:10167B0022C2D5E830E70FB2D5E4C39BFBE49AFA5C
:10168B00E499F9E498F8EC30E717B2D51216B212D8
:10169B000888E4C39BFBE49AFAE499F9E498F88090
:1016AB000312088830D50DE4C39FFFE49EFEE49D32
:1016BB00FDE49CFC22900004E07002A3E0702890F3
:1016CB000004F0A37402F07B017A00790090000211
:1016DB00E0FCA3E0FD9001B4E0FFA3E0900241CF5A
:1016EB00F0A3EFF0121634900005E024FFF0900009
:1016FB0004E034FFF0227B017A0179D690020CEBE7
:10170B00F0A3EAF0A3E9F090020CE0FBA3E0FAA34C
:10171B00E0F912061A601790020CA3E475F001129F
:10172B000747A9F0FA12061AFF12000380D922C04C
:10173B00E0C083C082C0D0E5AC30E01953ACFE9062
:10174B000261E02462F582E43402F583E5ADF090AA
:10175B000261E004F0E5AC30E10353ACFDD0D0D036
:10176B0082D083D0E03212182612187512185D122F
:10177B0018B71218CAC2B4D2847F327E001212B9C3
:10178B007D147C007F327E0012000E12139280FBC0
:10179B00EFB40A07740D1217A6740A309811A899A2
:1017AB00B8130CC2983098FDA899C298B811F630AE
:1017BB0099FDC299F59922EF4488F5BC0000000011
:1017CB00E5BC30E4FB53BCEFAFBD7E00EF7802C34A
:1017DB0033CE33CED8F9FFADBEEF4DFF22C0E0C004
:1017EB00F0C083C082C0D075D008B2B512008E1283
:1017FB0016C0D0D0D082D083D0F0D0E032D3EF94CB
:10180B0000EE940040147D267C02ED1D70011CED52
:10181B004C70F7EF1F70E61E80E32275B2FFE4F504
:10182B00B17594FF75930175B4FFF5B37592FF75A0
:10183B009103F596F59522EF1FAA0670011E4A60DB
:10184B00107C137D88ED1DAA0470011C4A60E88092
:10185B00F42275AC1043AC4043D10275D5F375D46B
:10186B00FC43D10875AF08D2AF22759850438E4018
:10187B00538EFE53890F758BF3758DFCC2ABD28ED5
:10188B0022706C763A25627520687A0D0A00566FC5
:10189B006C3A25640D0A00E4FFFE12156C7C007D8A
:1018AB00361206947C037DE81206A622538E7F53D4
:1018BB0089F0758A58758C9EC28DD28CD2A92275EF
:0E18CB009D03E4F5BD75BC897F02FE02184244
:00000001FF
